{
    "_format": "hh-sol-artifact-1",
    "contractName": "Transactions",
    "sourceName": "contracts/Transaction.sol",
    "abi": [
        {
            "anonymous": false,
            "inputs": [
                {
                    "indexed": true,
                    "internalType": "address",
                    "name": "from",
                    "type": "address"
                },
                {
                    "indexed": true,
                    "internalType": "address",
                    "name": "receiver",
                    "type": "address"
                },
                {
                    "indexed": false,
                    "internalType": "uint256",
                    "name": "amount",
                    "type": "uint256"
                },
                {
                    "indexed": false,
                    "internalType": "string",
                    "name": "message",
                    "type": "string"
                },
                {
                    "indexed": false,
                    "internalType": "uint256",
                    "name": "timestamp",
                    "type": "uint256"
                },
                {
                    "indexed": false,
                    "internalType": "string",
                    "name": "keycode",
                    "type": "string"
                }
            ],
            "name": "Transfer",
            "type": "event"
        },
        {
            "inputs": [
                {
                    "internalType": "address payable",
                    "name": "receiver",
                    "type": "address"
                },
                {
                    "internalType": "uint256",
                    "name": "amount",
                    "type": "uint256"
                },
                {
                    "internalType": "string",
                    "name": "message",
                    "type": "string"
                },
                {
                    "internalType": "string",
                    "name": "keycode",
                    "type": "string"
                }
            ],
            "name": "addToBlockchain",
            "outputs": [],
            "stateMutability": "nonpayable",
            "type": "function"
        },
        {
            "inputs": [],
            "name": "getAllTransactions",
            "outputs": [
                {
                    "components": [
                        {
                            "internalType": "address",
                            "name": "sender",
                            "type": "address"
                        },
                        {
                            "internalType": "address",
                            "name": "receiver",
                            "type": "address"
                        },
                        {
                            "internalType": "uint256",
                            "name": "amount",
                            "type": "uint256"
                        },
                        {
                            "internalType": "string",
                            "name": "message",
                            "type": "string"
                        },
                        {
                            "internalType": "string",
                            "name": "keycode",
                            "type": "string"
                        },
                        {
                            "internalType": "uint256",
                            "name": "timestamp",
                            "type": "uint256"
                        }
                    ],
                    "internalType": "struct Transactions.TransferStructure[]",
                    "name": "",
                    "type": "tuple[]"
                }
            ],
            "stateMutability": "view",
            "type": "function"
        },
        {
            "inputs": [],
            "name": "getTransactionCount",
            "outputs": [
                {
                    "internalType": "uint256",
                    "name": "",
                    "type": "uint256"
                }
            ],
            "stateMutability": "view",
            "type": "function"
        },
        {
            "inputs": [],
            "name": "transactionCounter",
            "outputs": [
                {
                    "internalType": "uint256",
                    "name": "",
                    "type": "uint256"
                }
            ],
            "stateMutability": "view",
            "type": "function"
        },
        {
            "inputs": [
                {
                    "internalType": "uint256",
                    "name": "",
                    "type": "uint256"
                }
            ],
            "name": "transactions",
            "outputs": [
                {
                    "internalType": "address",
                    "name": "sender",
                    "type": "address"
                },
                {
                    "internalType": "address",
                    "name": "receiver",
                    "type": "address"
                },
                {
                    "internalType": "uint256",
                    "name": "amount",
                    "type": "uint256"
                },
                {
                    "internalType": "string",
                    "name": "message",
                    "type": "string"
                },
                {
                    "internalType": "string",
                    "name": "keycode",
                    "type": "string"
                },
                {
                    "internalType": "uint256",
                    "name": "timestamp",
                    "type": "uint256"
                }
            ],
            "stateMutability": "view",
            "type": "function"
        }
    ],
    "bytecode": "0x608060405234801561001057600080fd5b5061107e806100206000396000f3fe608060405234801561001057600080fd5b50600436106100575760003560e01c806314e887e81461005c57806327506f531461007a5780632e7700f0146100985780639ace38c2146100b6578063cc2d7ead146100eb575b600080fd5b610064610107565b60405161007191906106ea565b60405180910390f35b61008261010d565b60405161008f9190610937565b60405180910390f35b6100a0610350565b6040516100ad91906106ea565b60405180910390f35b6100d060048036038101906100cb9190610999565b610359565b6040516100e296959493929190610a1f565b60405180910390f35b61010560048036038101906101009190610c01565b6104f5565b005b60005481565b60606001805480602002602001604051908101604052809291908181526020016000905b8282101561034757838290600052602060002090600602016040518060c00160405290816000820160009054906101000a900473ffffffffffffffffffffffffffffffffffffffff1673ffffffffffffffffffffffffffffffffffffffff1673ffffffffffffffffffffffffffffffffffffffff1681526020016001820160009054906101000a900473ffffffffffffffffffffffffffffffffffffffff1673ffffffffffffffffffffffffffffffffffffffff1673ffffffffffffffffffffffffffffffffffffffff1681526020016002820154815260200160038201805461021a90610ccf565b80601f016020809104026020016040519081016040528092919081815260200182805461024690610ccf565b80156102935780601f1061026857610100808354040283529160200191610293565b820191906000526020600020905b81548152906001019060200180831161027657829003601f168201915b505050505081526020016004820180546102ac90610ccf565b80601f01602080910402602001604051908101604052809291908181526020018280546102d890610ccf565b80156103255780601f106102fa57610100808354040283529160200191610325565b820191906000526020600020905b81548152906001019060200180831161030857829003601f168201915b5050505050815260200160058201548152505081526020019060010190610131565b50505050905090565b60008054905090565b6001818154811061036957600080fd5b90600052602060002090600602016000915090508060000160009054906101000a900473ffffffffffffffffffffffffffffffffffffffff16908060010160009054906101000a900473ffffffffffffffffffffffffffffffffffffffff16908060020154908060030180546103de90610ccf565b80601f016020809104026020016040519081016040528092919081815260200182805461040a90610ccf565b80156104575780601f1061042c57610100808354040283529160200191610457565b820191906000526020600020905b81548152906001019060200180831161043a57829003601f168201915b50505050509080600401805461046c90610ccf565b80601f016020809104026020016040519081016040528092919081815260200182805461049890610ccf565b80156104e55780601f106104ba576101008083540402835291602001916104e5565b820191906000526020600020905b8154815290600101906020018083116104c857829003601f168201915b5050505050908060050154905086565b60008081548092919061050790610d2f565b919050555060016040518060c001604052803373ffffffffffffffffffffffffffffffffffffffff1681526020018673ffffffffffffffffffffffffffffffffffffffff16815260200185815260200184815260200183815260200142815250908060018154018082558091505060019003906000526020600020906006020160009091909190915060008201518160000160006101000a81548173ffffffffffffffffffffffffffffffffffffffff021916908373ffffffffffffffffffffffffffffffffffffffff16021790555060208201518160010160006101000a81548173ffffffffffffffffffffffffffffffffffffffff021916908373ffffffffffffffffffffffffffffffffffffffff16021790555060408201518160020155606082015181600301908161063d9190610f23565b5060808201518160040190816106539190610f23565b5060a0820151816005015550508373ffffffffffffffffffffffffffffffffffffffff163373ffffffffffffffffffffffffffffffffffffffff167f416cfa4330a4565f45c2fd2dd4826a83a37443aba2ce6f79477c7355afac35fa858542866040516106c39493929190610ff5565b60405180910390a350505050565b6000819050919050565b6106e4816106d1565b82525050565b60006020820190506106ff60008301846106db565b92915050565b600081519050919050565b600082825260208201905092915050565b6000819050602082019050919050565b600073ffffffffffffffffffffffffffffffffffffffff82169050919050565b600061075c82610731565b9050919050565b61076c81610751565b82525050565b61077b816106d1565b82525050565b600081519050919050565b600082825260208201905092915050565b60005b838110156107bb5780820151818401526020810190506107a0565b60008484015250505050565b6000601f19601f8301169050919050565b60006107e382610781565b6107ed818561078c565b93506107fd81856020860161079d565b610806816107c7565b840191505092915050565b600060c0830160008301516108296000860182610763565b50602083015161083c6020860182610763565b50604083015161084f6040860182610772565b506060830151848203606086015261086782826107d8565b9150506080830151848203608086015261088182826107d8565b91505060a083015161089660a0860182610772565b508091505092915050565b60006108ad8383610811565b905092915050565b6000602082019050919050565b60006108cd82610705565b6108d78185610710565b9350836020820285016108e985610721565b8060005b85811015610925578484038952815161090685826108a1565b9450610911836108b5565b925060208a019950506001810190506108ed565b50829750879550505050505092915050565b6000602082019050818103600083015261095181846108c2565b905092915050565b6000604051905090565b600080fd5b600080fd5b610976816106d1565b811461098157600080fd5b50565b6000813590506109938161096d565b92915050565b6000602082840312156109af576109ae610963565b5b60006109bd84828501610984565b91505092915050565b6109cf81610751565b82525050565b600082825260208201905092915050565b60006109f182610781565b6109fb81856109d5565b9350610a0b81856020860161079d565b610a14816107c7565b840191505092915050565b600060c082019050610a3460008301896109c6565b610a4160208301886109c6565b610a4e60408301876106db565b8181036060830152610a6081866109e6565b90508181036080830152610a7481856109e6565b9050610a8360a08301846106db565b979650505050505050565b6000610a9982610731565b9050919050565b610aa981610a8e565b8114610ab457600080fd5b50565b600081359050610ac681610aa0565b92915050565b600080fd5b600080fd5b7f4e487b7100000000000000000000000000000000000000000000000000000000600052604160045260246000fd5b610b0e826107c7565b810181811067ffffffffffffffff82111715610b2d57610b2c610ad6565b5b80604052505050565b6000610b40610959565b9050610b4c8282610b05565b919050565b600067ffffffffffffffff821115610b6c57610b6b610ad6565b5b610b75826107c7565b9050602081019050919050565b82818337600083830152505050565b6000610ba4610b9f84610b51565b610b36565b905082815260208101848484011115610bc057610bbf610ad1565b5b610bcb848285610b82565b509392505050565b600082601f830112610be857610be7610acc565b5b8135610bf8848260208601610b91565b91505092915050565b60008060008060808587031215610c1b57610c1a610963565b5b6000610c2987828801610ab7565b9450506020610c3a87828801610984565b935050604085013567ffffffffffffffff811115610c5b57610c5a610968565b5b610c6787828801610bd3565b925050606085013567ffffffffffffffff811115610c8857610c87610968565b5b610c9487828801610bd3565b91505092959194509250565b7f4e487b7100000000000000000000000000000000000000000000000000000000600052602260045260246000fd5b60006002820490506001821680610ce757607f821691505b602082108103610cfa57610cf9610ca0565b5b50919050565b7f4e487b7100000000000000000000000000000000000000000000000000000000600052601160045260246000fd5b6000610d3a826106d1565b91507fffffffffffffffffffffffffffffffffffffffffffffffffffffffffffffffff8203610d6c57610d6b610d00565b5b600182019050919050565b60008190508160005260206000209050919050565b60006020601f8301049050919050565b600082821b905092915050565b600060088302610dd97fffffffffffffffffffffffffffffffffffffffffffffffffffffffffffffffff82610d9c565b610de38683610d9c565b95508019841693508086168417925050509392505050565b6000819050919050565b6000610e20610e1b610e16846106d1565b610dfb565b6106d1565b9050919050565b6000819050919050565b610e3a83610e05565b610e4e610e4682610e27565b848454610da9565b825550505050565b600090565b610e63610e56565b610e6e818484610e31565b505050565b5b81811015610e9257610e87600082610e5b565b600181019050610e74565b5050565b601f821115610ed757610ea881610d77565b610eb184610d8c565b81016020851015610ec0578190505b610ed4610ecc85610d8c565b830182610e73565b50505b505050565b600082821c905092915050565b6000610efa60001984600802610edc565b1980831691505092915050565b6000610f138383610ee9565b9150826002028217905092915050565b610f2c82610781565b67ffffffffffffffff811115610f4557610f44610ad6565b5b610f4f8254610ccf565b610f5a828285610e96565b600060209050601f831160018114610f8d5760008415610f7b578287015190505b610f858582610f07565b865550610fed565b601f198416610f9b86610d77565b60005b82811015610fc357848901518255600182019150602085019450602081019050610f9e565b86831015610fe05784890151610fdc601f891682610ee9565b8355505b6001600288020188555050505b505050505050565b600060808201905061100a60008301876106db565b818103602083015261101c81866109e6565b905061102b60408301856106db565b818103606083015261103d81846109e6565b90509594505050505056fea264697066735822122097de8f2ab3956fba279f08085a4e6e2b413c01f12e51c503897e4b09ae8d5ee864736f6c63430008130033",
    "linkReferences": {},
    "deployedLinkReferences": {}
}